:020000040800F2
:1000000000280020310E0008D50D0008DB0D000887
:10001000E10D0008E70D0008ED0D000800000000EC
:10002000000000000000000000000000F30D0008C8
:10003000FF0D0008000000000B0E0008170E00085E
:10004000790E0008790E0008790E0008790E000874
:10005000790E0008790E0008790E0008790E000864
:10006000790E0008790E0008790E0008790E000854
:10007000790E0008790E0008790E0008790E000844
:10008000790E0008790E0008790E0008790E000834
:10009000790E0008790E0008790E0008790E000824
:1000A000790E0008790E0008790E0008790E000814
:1000B000790E0008790E000800000000790E000893
:1000C000790E00080000000000000000790E000812
:1000D00000000000790E0008790E00080000000002
:1000E000790E0008790E0008790E00080000000063
:1000F0000000000000000000000000000000000000
:0C01000000000000000000005FF808F1A3
:10010C0010B5054C237833B9044B13B10448AFF345
:10011C0000800123237010BD0C00002000000000A3
:10012C008C1C000808B5034B1BB103490348AFF303
:10013C00008008BD00000000100000208C1C00088E
:10014C0080B582B000AF78607B68092B00F28081AB
:10015C0001A252F823F000BF8D010008D501000860
:10016C001D02000865020008AD020008F502000837
:10017C003D03000885030008CD03000815040008A2
:10018C0000220121C64801F059F900220221C4487D
:10019C0001F054F900220421C14801F04FF900226A
:1001AC000821BF4801F04AF900221021BC4801F097
:1001BC0045F900222021BA4801F040F901224021E2
:1001CC00B74801F03BF967E101220121B44801F085
:1001DC0035F900220221B24801F030F90022042145
:1001EC00AF4801F02BF901220821AD4801F026F9A6
:1001FC0001221021AA4801F021F901222021A8484E
:10020C0001F01CF901224021A54801F017F943E146
:10021C0000220121A24801F011F900220221A0487C
:10022C0001F00CF9012204219D4801F007F900228C
:10023C0008219B4801F002F900221021984801F096
:10024C00FDF801222021964801F0F8F80022402107
:10025C00934801F0F3F81FE100220121904801F0CE
:10026C00EDF8002202218E4801F0E8F8002204216A
:10027C008B4801F0E3F800220821894801F0DEF8F0
:10028C0001221021864801F0D9F80122202184484E
:10029C0001F0D4F800224021814801F0CFF8FBE0B6
:1002AC00012201217E4801F0C9F8002202217C487C
:1002BC0001F0C4F800220421794801F0BFF80122B2
:1002CC000821774801F0BAF801221021744801F096
:1002DC00B5F800222021724801F0B0F8002240212C
:1002EC006F4801F0ABF8D7E0002201216C4801F017
:1002FC00A5F8012202216A4801F0A0F8002204218D
:10030C00674801F09BF800220821654801F096F837
:10031C0001221021624801F091F80022202160484E
:10032C0001F08CF8002240215D4801F087F8B3E021
:10033C00002201215A4801F081F80122022158487B
:10034C0001F07CF800220421554801F077F80022D6
:10035C000821534801F072F800221021504801F096
:10036C006DF8002220214E4801F068F8002240214F
:10037C004B4801F063F88FE000220121484801F05E
:10038C005DF800220221464801F058F800220421B1
:10039C00434801F053F801220821414801F04EF87E
:1003AC00012210213E4801F049F8012220213C484D
:1003BC0001F044F801224021394801F03FF86BE08C
:1003CC0000220121364801F039F80022022134487C
:1003DC0001F034F800220421314801F02FF80022FA
:1003EC0008212F4801F02AF8002210212C4801F096
:1003FC0025F8002220212A4801F020F80022402173
:10040C00274801F01BF847E000220121244801F0A5
:10041C0015F800220221224801F010F800220421D4
:10042C001F4801F00BF8002208211D4801F006F8C6
:10043C00012210211A4801F001F80022202118484D
:10044C0000F0FCFF00224021154800F0F7FF23E0EC
:10045C0001220121124800F0F1FF01220221104873
:10046C0000F0ECFF012204210D4800F0E7FF01220F
:10047C0008210B4800F0E2FF01221021084800F08F
:10048C00DDFF01222021064800F0D8FF0122402187
:10049C00034800F0D3FF00BF00BF0837BD4680BD46
:1004AC00000C014080B582B000AF78607B68092BEE
:1004BC0000F2C88101A252F823F000BFF104000839
:1004CC00470500089D050008F305000849060008CB
:1004DC009F060008F50600084B070008A107000856
:1004EC00F707000800224FF48071D54800F0A6FFF2
:1004FC0000224FF40071D24800F0A0FF00224FF40C
:10050C008061CF4800F09AFF00224FF40061CC4884
:10051C0000F094FF00224FF48051C94800F08EFF88
:10052C0000224FF40051C64800F088FF01224FF41E
:10053C008041C34800F082FFAFE101224FF480718B
:10054C00BF4800F07BFF00224FF40071BC4800F064
:10055C0075FF00224FF48061B94800F06FFF012253
:10056C004FF40061B64800F069FF01224FF480514E
:10057C00B34800F063FF01224FF40051B04800F083
:10058C005DFF01224FF48041AD4800F057FF84E13C
:10059C0000224FF48071AA4800F050FF00224FF463
:1005AC000071A74800F04AFF01224FF48061A44873
:1005BC0000F044FF00224FF40061A14800F03EFF20
:1005CC0000224FF480519E4800F038FF01224FF476
:1005DC0000519B4800F032FF00224FF480419848B4
:1005EC0000F02CFF59E100224FF48071944800F088
:1005FC0025FF00224FF40071914800F01FFF0022EC
:10060C004FF480618E4800F019FF00224FF4006116
:10061C008B4800F013FF01224FF48051884800F002
:10062C000DFF01224FF40051854800F007FF002216
:10063C004FF48041824800F001FF2EE101224FF47B
:10064C0080717F4800F0FAFE00224FF400717C4864
:10065C0000F0F4FE00224FF48061794800F0EEFEC9
:10066C0001224FF40061764800F0E8FE01224FF4BD
:10067C008051734800F0E2FE00224FF400517048A4
:10068C0000F0DCFE00224FF480416D4800F0D6FEF5
:10069C0003E100224FF48071694800F0CFFE012283
:1006AC004FF40071664800F0C9FE00224FF48061DF
:1006BC00634800F0C3FE00224FF40061604800F074
:1006CC00BDFE01224FF480515D4800F0B7FE0022C0
:1006DC004FF400515A4800F0B1FE00224FF4804113
:1006EC00574800F0ABFED8E000224FF4807154481C
:1006FC0000F0A4FE01224FF40071514800F09EFE60
:10070C0000224FF480614E4800F098FE00224FF416
:10071C0000614B4800F092FE00224FF48051484893
:10072C0000F08CFE00224FF40051454800F086FE8C
:10073C0000224FF48041424800F080FEADE00022E0
:10074C004FF480713E4800F079FE00224FF40071A6
:10075C003B4800F073FE00224FF48061384800F0F3
:10076C006DFE01224FF40061354800F067FE012256
:10077C004FF48051324800F061FE01224FF40051D9
:10078C002F4800F05BFE01224FF480412C4800F012
:10079C0055FE82E000224FF48071294800F04EFE95
:1007AC0000224FF40071264800F048FE00224FF45E
:1007BC008061234800F042FE00224FF40061204883
:1007CC0000F03CFE00224FF480511D4800F036FE34
:1007DC0000224FF400511A4800F030FE00224FF472
:1007EC008041174800F02AFE57E000224FF4807138
:1007FC00134800F023FE00224FF40071104800F063
:10080C001DFE00224FF480610D4800F017FE0022FF
:10081C004FF400610A4800F011FE01224FF48051A0
:10082C00074800F00BFE00224FF40051044800F082
:10083C0005FE00224FF48041014800F0FFFD2CE042
:10084C00000C014001224FF48071164800F0F6FDB7
:10085C0001224FF40071134800F0F0FD01224FF417
:10086C008061104800F0EAFD01224FF400610D4850
:10087C0000F0E4FD01224FF480510A4800F0DEFD47
:10088C0001224FF40051074800F0D8FD01224FF42B
:10089C008041044800F0D2FD00BF00BF0837BD46C0
:1008AC0080BD00BF000C014080B582B000AF00F0ED
:1008BC00DFFA00F0D9F800F013F900222021634888
:1008CC0000F0BCFD01228021604800F0B7FD012240
:1008DC0040215E4800F0B2FD01224FF480715B486C
:1008EC0000F0ACFD00224FF48061584800F0A6FDEA
:1008FC0001224FF40071554800F0A0FD052000F0D6
:10090C004BF9032000F098F905237B6003233B602F
:10091C004F4B1B68012B11D14D4B00221A60012249
:10092C0020214A4800F08AFD00228021474800F02F
:10093C0085FD032000F044F903237B60454B1B68C5
:10094C00012B11D1434B00221A60012280213F4818
:10095C0000F074FD002240213C4800F06FFD0220A5
:10096C0000F042F902237B603B4B1B68012B11D139
:10097C00394B00221A6001224021344800F05EFD00
:10098C0000222021314800F059FD052000F004F927
:10099C0005237B60314B1B68012B13D12F4B00229D
:1009AC001A6001224FF48071284800F047FD0022A4
:1009BC004FF48061254800F041FD032000F03CF924
:1009CC0003233B60264B1B68012B13D1244B0022C5
:1009DC001A6001224FF480611C4800F02FFD0022A8
:1009EC004FF40071194800F029FD022000F038F98D
:1009FC0002233B601B4B1B68012B13D1194B0022AC
:100A0C001A6001224FF40071104800F017FD00220B
:100A1C004FF480710D4800F011FD052000F0F8F83E
:100A2C0005233B6000F030F97B68013B7B603B6841
:100A3C00013B3B607868FFF783FB3868FFF732FDBA
:100A4C004FF47A7000F076FA62E700BF00080140BC
:100A5C004000002044000020480000204C000020F2
:100A6C00500000205400002080B590B000AF07F17A
:100A7C00180328220021184601F0FAF83B1D002229
:100A8C001A605A609A60DA601A610223BB61012312
:100A9C00BB621023FB6200237B6307F1180318462B
:100AAC0000F0E4FC0346002B01D000F06FF80F239C
:100ABC007B600023BB600023FB6000233B610023B1
:100ACC007B613B1D0021184600F052FF0346002BB2
:100ADC0001D000F05BF800BF4037BD4680BD000080
:100AEC0080B586B000AF07F1080300221A605A6087
:100AFC009A60DA60224B9B69214A43F004039361AC
:100B0C001F4B9B6903F004037B607B681C4B9B6948
:100B1C001B4A43F008039361194B9B6903F00803CC
:100B2C003B603B6800224FF4FC61164800F086FCE9
:100B3C00002247F67F71144800F080FC4FF4FC63F0
:100B4C00BB600123FB6000233B6102237B6107F147
:100B5C00080319460B4800F0F5FA47F67F73BB60A3
:100B6C000123FB6000233B6102237B6107F1080337
:100B7C001946054800F0E6FA00BF1837BD4680BD9F
:100B8C000010024000080140000C014080B400AF8E
:100B9C0072B600BFFEE7000080B483B000AF78608F
:100BAC00054A7B681360054B00221A6000BF0C37A6
:100BBC00BD4680BC704700BF2800002040000020CC
:100BCC0080B483B000AF7860054A7B681360054B36
:100BDC0000221A6000BF0C37BD4680BC704700BFB6
:100BEC002C0000204400002080B483B000AF78605B
:100BFC00054A7B681360054B00221A6000BF0C3756
:100C0C00BD4680BC704700BF30000020480000206B
:100C1C0080B483B000AF7860054A7B681360054BE5
:100C2C0000221A6000BF0C37BD4680BC704700BF65
:100C3C00340000204C00002080B483B000AF7860FA
:100C4C00054A7B681360054B00221A6000BF0C3705
:100C5C00BD4680BC704700BF38000020500000200B
:100C6C0080B483B000AF7860054A7B681360054B95
:100C7C0000221A6000BF0C37BD4680BC704700BF15
:100C8C003C0000205400002080B400AF314B1B68A6
:100C9C00002B0BDD2F4B1B68013B2E4A13602D4B99
:100CAC001B68002B02DC2C4B01221A602B4B1B689F
:100CBC00002B0BDD294B1B68013B284A1360274B8B
:100CCC001B68002B02DC264B01221A60254B1B688B
:100CDC00002B0BDD234B1B68013B224A1360214B7D
:100CEC001B68002B02DC204B01221A601F4B1B6877
:100CFC00002B0BDD1D4B1B68013B1C4A13601B4B6F
:100D0C001B68002B02DC1A4B01221A60194B1B6862
:100D1C00002B0BDD174B1B68013B164A1360154B60
:100D2C001B68002B02DC144B01221A60134B1B684E
:100D3C00002B0BDD114B1B68013B104A13600F4B52
:100D4C001B68002B02DC0E4B01221A6000BFBD4653
:100D5C0080BC704728000020400000202C000020A0
:100D6C004400002030000020480000203400002007
:100D7C004C00002038000020500000203C000020D7
:100D8C005400002080B483B000AF0E4B9B690D4A19
:100D9C0043F0010393610B4B9B6903F001037B60F0
:100DAC007B68084BDB69074A43F08053D361054BE2
:100DBC00DB6903F080533B603B6800BF0C37BD46DA
:100DCC0080BC70470010024080B400AFFEE780B4D6
:100DDC0000AFFEE780B400AFFEE780B400AFFEE7E3
:100DEC0080B400AFFEE780B400AF00BFBD4680BC4E
:100DFC00704780B400AF00BFBD4680BC704780B464
:100E0C0000AF00BFBD4680BC704780B500AF00F09E
:100E1C0075F800BF80BD80B400AF00BFBD4680BC7C
:100E2C0070470000FFF7F7FF0B480C490C4A0023F2
:100E3C0002E0D458C4500433C4188C42F9D3094A84
:100E4C00094C002301E013600432A242FBD300F0F2
:100E5C00EBFEFFF729FD7047000000200C0000207E
:100E6C00D01C00080C0000205C000020FEE70000F5
:100E7C0080B500AF084B1B68074A43F010031360A2
:100E8C00032000F02BF90F2000F008F8FFF77AFF91
:100E9C000023184680BD00BF0020024080B582B000
:100EAC0000AF7860124B1A68124B1B7819464FF43E
:100EBC007A73B3FBF1F3B2FBF3F3184600F035F998
:100ECC000346002B01D001230EE07B680F2B0AD8C0
:100EDC00002279684FF0FF3000F00BF9064A7B686E
:100EEC001360002300E0012318460837BD4680BD7F
:100EFC0000000020080000200400002080B400AF97
:100F0C00054B1B781A46054B1B681344034A1360A8
:100F1C0000BFBD4680BC7047080000205800002070
:100F2C0080B400AF024B1B681846BD4680BC7047AE
:100F3C005800002080B584B000AF7860FFF7F0FF58
:100F4C00B8607B68FB60FB68B3F1FF3F05D00A4BD0
:100F5C001B781A46FB681344FB6000BFFFF7E0FFE9
:100F6C000246BB68D31AFA689A42F7D800BF00BF92
:100F7C001037BD4680BD00BF0800002080B485B08E
:100F8C0000AF78607B6803F00703FB600C4BDB68F9
:100F9C00BB60BA684FF6FF031340BB60FB681A02D4
:100FAC00BB68134343F0BF6343F40033BB60044A94
:100FBC00BB68D36000BF1437BD4680BC704700BF10
:100FCC0000ED00E080B400AF044BDB681B0A03F0BB
:100FDC0007031846BD4680BC704700BF00ED00E01B
:100FEC0080B483B000AF03463960FB7197F90730CA
:100FFC00002B0ADB3B68DAB20C4997F90730120177
:10100C00D2B20B4483F800230AE03B68DAB20849F9
:10101C00FB7903F00F03043B1201D2B20B441A7696
:10102C0000BF0C37BD4680BC704700BF00E100E03C
:10103C0000ED00E080B489B000AFF860B9607A6070
:10104C00FB6803F00703FB61FB69C3F10703042B87
:10105C0028BF0423BB61FB690433062B02D9FB694F
:10106C00033B00E000237B614FF0FF32BB6902FAC7
:10107C0003F3DA43BB681A407B699A404FF0FF31A7
:10108C007B6901FA03F3D9437B680B401343184681
:10109C002437BD4680BC704780B582B000AF786005
:1010AC007B68013BB3F1807F01D301230FE00A4A37
:1010BC007B68013B53600F214FF0FF30FFF790FF2F
:1010CC00054B00229A60044B07221A600023184635
:1010DC000837BD4680BD00BF10E000E080B582B08F
:1010EC0000AF78607868FFF749FF00BF0837BD464E
:1010FC0080BD80B586B000AF0346B9607A60FB73E3
:10110C0000237B61FFF75EFF78617A68B9687869C4
:10111C00FFF790FF024697F90F3011461846FFF77C
:10112C005FFF00BF1837BD4680BD80B582B000AFF1
:10113C0078607868FFF7B0FF034618460837BD465D
:10114C0080BD000080B48BB000AF786039600023A4
:10115C007B6200233B6261E101227B6A02FA03F3AA
:10116C00FB613B681B68FA691340BB61BA69FB6998
:10117C009A4240F050813B685B68974A93425ED03C
:10118C00954A934275D8954A934258D0934A9342C4
:10119C006FD8934A934252D0914A934269D8914A5C
:1011AC0093424CD08F4A934263D88F4A934246D095
:1011BC008D4A93425DD8122B2AD8122B59D801A2F2
:1011CC0052F823F04B1200082512000837120008C1
:1011DC00791200087F1200087F1200087F120008A5
:1011EC007F1200087F1200087F1200087F1200088F
:1011FC007F1200087F1200087F1200087F1200087F
:10120C007F1200087F1200082D12000841120008FE
:10121C00764A934213D02CE03B68DB683B6229E0B2
:10122C003B68DB6804333B6224E03B68DB680833D3
:10123C003B621FE03B68DB680C333B621AE03B68A7
:10124C009B68002B02D104233B6213E03B689B6834
:10125C00012B05D108233B627B68FA691A6109E00E
:10126C0008233B627B68FA695A6103E000233B6206
:10127C0000E000BFBB69FF2B01D87B6801E07B68F5
:10128C0004337B61BB69FF2B02D87B6A9B0002E0B5
:10129C007B6A083B9B003B617B691A680F213B69A9
:1012AC0001FA03F3DB431A40396A3B6901FA03F391
:1012BC001A437B691A603B685B6803F08053002B10
:1012CC0000F0A9804A4B9B69494A43F001039361A2
:1012DC00474B9B6903F00103BB60BB68454A7B6AC3
:1012EC009B08023352F82330FB607B6A03F0030344
:1012FC009B000F2202FA03F3DB43FA681340FB60F6
:10130C007B683D4A93420DD07B683C4A934207D0A0
:10131C007B683B4A934201D1022304E0032302E0A1
:10132C00012300E000237A6A02F00302920093404A
:10133C00FA681343FB602F497B6A9B080233FA68F7
:10134C0041F823203B685B6803F48013002B06D024
:10135C002C4B9A682B49BB6913438B6006E0294BD5
:10136C009A68BB69DB43274913408B603B685B6819
:10137C0003F40013002B06D0224BDA682149BB6919
:10138C001343CB6006E01F4BDA68BB69DB431D4996
:10139C001340CB603B685B6803F40033002B06D032
:1013AC00184B5A681749BB6913434B6006E0154B41
:1013BC005A68BB69DB43134913404B603B685B685D
:1013CC0003F48033002B1FD00E4B1A680D49BB69F8
:1013DC0013430B601FE000BF0000321000003110FF
:1013EC00000022100000211000001210000011104B
:1013FC00001002400000014000080140000C0140B8
:10140C0000100140000401400B4B1A68BB69DB4320
:10141C00094913400B607B6A01337B623B681A6895
:10142C007B6A22FA03F3002B7FF496AE00BF00BF59
:10143C002C37BD4680BC70470004014080B483B09B
:10144C0000AF78600B467B8013467B707B78002B5B
:10145C0003D07A887B681A6103E07B881A047B6866
:10146C001A6100BF0C37BD4680BC704780B586B092
:10147C0000AF78607B68002B01D1012372E27B689E
:10148C001B6803F00103002B00F08780924B5B6814
:10149C0003F00C03042B0CD08F4B5B6803F00C0394
:1014AC00082B12D18C4B5B6803F48033B3F5803F6F
:1014BC000BD1894B1B6803F40033002B6CD07B6879
:1014CC005B68002B68D101234CE27B685B68B3F549
:1014DC00803F06D1804B1B687F4A43F480331360F6
:1014EC002EE07B685B68002B0CD17B4B1B687A4A27
:1014FC0023F480331360784B1B68774A23F48023E2
:10150C0013601DE07B685B68B3F5A02F0CD1724BA8
:10151C001B68714A43F4802313606F4B1B686E4A3F
:10152C0043F4803313600BE06B4B1B686A4A23F463
:10153C0080331360684B1B68674A23F48023136065
:10154C007B685B68002B13D0FFF7EAFC386108E07E
:10155C00FFF7E6FC02463B69D31A642B01D903233F
:10156C0000E25D4B1B6803F40033002BF0D014E059
:10157C00FFF7D6FC386108E0FFF7D2FC02463B6966
:10158C00D31A642B01D90323ECE1534B1B6803F4EE
:10159C000033002BF0D100E000BF7B681B6803F028
:1015AC000203002B63D04C4B5B6803F00C03002B45
:1015BC000BD0494B5B6803F00C03082B1CD1464B3A
:1015CC005B6803F48033002B16D1434B1B6803F08C
:1015DC000203002B05D07B681B69012B01D0012372
:1015EC00C0E13D4B1B6823F0F8027B685B69DB00B4
:1015FC00394913430B603AE07B681B69002B20D000
:10160C00364B01221A60FFF78BFC386108E0FFF7BC
:10161C0087FC02463B69D31A022B01D90323A1E1B3
:10162C002D4B1B6803F00203002BF0D02A4B1B68D8
:10163C0023F0F8027B685B69DB00274913430B60DE
:10164C0015E0264B00221A60FFF76AFC386108E0AF
:10165C00FFF766FC02463B69D31A022B01D9032320
:10166C0080E11D4B1B6803F00203002BF0D17B685B
:10167C001B6803F00803002B3AD07B689B69002B96
:10168C0019D0174B01221A60FFF74AFC386108E0A9
:10169C00FFF746FC02463B69D31A022B01D9032300
:1016AC0060E10D4B5B6A03F00203002BF0D00120CC
:1016BC0000F09CFA1CE00A4B00221A60FFF730FC89
:1016CC0038610FE0FFF72CFC02463B69D31A022B62
:1016DC0008D9032346E100BF00100240000042423B
:1016EC0080044242924B5B6A03F00203002BE9D167
:1016FC007B681B6803F00403002B00F0A68000231A
:10170C00FB758B4BDB6903F08053002B0DD1884BA1
:10171C00DB69874A43F08053D361854BDB6903F067
:10172C008053BB60BB680123FB75824B1B6803F4C1
:10173C008073002B18D17F4B1B687E4A43F4807357
:10174C001360FFF7EDFB386108E0FFF7E9FB024699
:10175C003B69D31A642B01D9032303E1754B1B6836
:10176C0003F48073002BF0D07B68DB68012B06D16F
:10177C006F4B1B6A6E4A43F0010313622DE07B68CA
:10178C00DB68002B0CD16A4B1B6A694A23F00103FE
:10179C001362674B1B6A664A23F0040313621CE056
:1017AC007B68DB68052B0CD1614B1B6A604A43F0EC
:1017BC00040313625E4B1B6A5D4A43F00103136220
:1017CC000BE05B4B1B6A5A4A23F001031362584B24
:1017DC001B6A574A23F0040313627B68DB68002BF7
:1017EC0015D0FFF79DFB38610AE0FFF799FB024625
:1017FC003B69D31A41F28832934201D90323B1E0F9
:10180C004B4B1B6A03F00203002BEED014E0FFF7E6
:10181C0087FB38610AE0FFF783FB02463B69D31A6A
:10182C0041F28832934201D903239BE0404B1B6A5F
:10183C0003F00203002BEED1FB7D012B05D13C4BB9
:10184C00DB693B4A23F08053D3617B68DB69002B57
:10185C0000F08780364B5B6803F00C03082B61D0DB
:10186C007B68DB69022B46D1334B00221A60FFF7F1
:10187C0057FB386108E0FFF753FB02463B69D31A6C
:10188C00022B01D903236DE0294B1B6803F0007375
:10189C00002BF0D17B681B6AB3F5803F08D1244B39
:1018AC005B6823F400327B689B68214913434B60CF
:1018BC001F4B5B6823F474127B68196A7B685B6A44
:1018CC000B431B4913434B601B4B01221A60FFF760
:1018DC0027FB386108E0FFF723FB02463B69D31A6C
:1018EC00022B01D903233DE0114B1B6803F000735D
:1018FC00002BF0D035E0104B00221A60FFF710FBE4
:10190C00386108E0FFF70CFB02463B69D31A022B47
:10191C0001D9032326E0064B1B6803F00073002B50
:10192C00F0D11EE07B68DB69012B07D1012319E0A4
:10193C000010024000700040600042420B4B5B689C
:10194C00FB60FB6803F480327B681B6A9A4206D109
:10195C00FB6803F470127B685B6A9A4201D0012326
:10196C0000E0002318461837BD4680BD0010024029
:10197C0080B584B000AF786039607B68002B01D1F2
:10198C000123D0E06A4B1B6803F007033A689A42C4
:10199C0010D9674B1B6823F0070265493B6813435A
:1019AC000B60634B1B6803F007033A689A4201D043
:1019BC000123B8E07B681B6803F00203002B20D0E6
:1019CC007B681B6803F00403002B05D0594B5B6844
:1019DC00584A43F4E06353607B681B6803F00803C8
:1019EC00002B05D0534B5B68524A43F46053536051
:1019FC00504B5B6823F0F0027B689B684D491343A6
:101A0C004B607B681B6803F00103002B40D07B68A4
:101A1C005B68012B07D1474B1B6803F40033002B89
:101A2C0015D101237FE07B685B68022B07D1414B0A
:101A3C001B6803F00073002B09D1012373E03D4BAD
:101A4C001B6803F00203002B01D101236BE0394B1F
:101A5C005B6823F003027B685B68364913434B6079
:101A6C00FFF75EFAF8600AE0FFF75AFA0246FB68E5
:101A7C00D31A41F28832934201D9032353E02D4B00
:101A8C005B6803F00C027B685B689B009A42EBD1AD
:101A9C00274B1B6803F007033A689A4210D2244B79
:101AAC001B6823F0070222493B6813430B60204B51
:101ABC001B6803F007033A689A4201D0012332E015
:101ACC007B681B6803F00403002B08D0194B5B6880
:101ADC0023F4E0627B68DB68164913434B607B6838
:101AEC001B6803F00803002B09D0124B5B6823F42E
:101AFC0060527B681B69DB000E4913434B6000F09E
:101B0C0021F802460B4B5B681B0903F00F030A49D3
:101B1C00CB5C22FA03F3094A1360094B1B68184685
:101B2C00FFF7BCF9002318461037BD4680BD00BF37
:101B3C000020024000100240A41C000800000020FD
:101B4C000400002080B487B000AF0023FB600023AA
:101B5C00BB6000237B6100237B6000233B611E4B39
:101B6C005B68FB60FB6803F00C03042B02D0082BB2
:101B7C0003D027E0194B3B6127E0FB689B0C03F07B
:101B8C000F03174AD35C7B60FB6803F48033002B94
:101B9C0010D0114B5B685B0C03F00103114AD35C52
:101BAC00BB607B680D4A03FB02F2BB68B2FBF3F32C
:101BBC007B6104E07B680C4A02FB03F37B617B696D
:101BCC003B6102E0054B3B6100BF3B6918461C378B
:101BDC00BD4680BC704700BF0010024000127A0066
:101BEC00B41C0008C41C000800093D0080B485B07A
:101BFC0000AF78600A4B1B680A4AA2FB03235B0AFE
:101C0C007A6802FB03F3FB6000BFFB685A1EFA60A4
:101C1C00002BF9D100BF00BF1437BD4680BC704704
:101C2C0000000020D34D621070B500260C4D0D4CF9
:101C3C00641BA410A64209D100F022F800260A4D1C
:101C4C000A4C641BA410A64205D170BD55F8043B88
:101C5C0098470136EEE755F8043B98470136F2E712
:101C6C00C81C0008C81C0008C81C0008CC1C0008B4
:101C7C0003460244934200D1704703F8011BF9E775
:101C8C00F8B500BFF8BC08BC9E467047F8B500BF5D
:081C9C00F8BC08BC9E4670472D
:101CA4000000000000000000010203040607080908
:101CB40002030405060708090A0B0C0D0E0F101089
:041CC4000102000019
:041CC80031010008DE
:041CCC000D010008FE
:0C1CD0000024F4001000000001000000DF
:0400000508000E31B0
:00000001FF
